:020000040800F2
:1000000000500020452500083D2300084323000838
:10001000492300084F230008552300080000000072
:100020000000000000000000000000005B2300084A
:100030006723000800000000732300087F230008E6
:100040008D2500088D2500088D2500088D250008C8
:100050008D2500088D2500088F2300089D230008AA
:100060008D2500088D2500088D2500088D250008A8
:100070008D2500088D2500088D2500088D25000898
:100080008D2500088D2500088D2500088D25000888
:100090008D2500088D2500088D250008AB2300085C
:1000A0008D2500088D2500088D2500088D25000868
:1000B0008D2500088D2500088D2500088D25000858
:1000C0008D2500088D2500088D2500088D25000848
:1000D0008D2500088D2500088D2500088D25000838
:1000E0008D2500088D2500088D25000800000000E2
:1000F0000000000000000000000000000000000000
:0C01000000000000000000005FF808F1A3
:1001100010B5054C237833B9044B13B10448AFF341
:1001200000800123237010BD140200200000000095
:100130000880000808B5034B1BB103490348AFF31F
:10014000008008BD000000001802002008800008A0
:10015000034613F8012B002AFBD1181A0138704707
:1001600081F0004102E000BF83F0004330B54FEA68
:1001700041044FEA430594EA050F08BF90EA020FD5
:100180001FBF54EA000C55EA020C7FEA645C7FEA68
:10019000655C00F0E2804FEA5454D4EB5555B8BF8B
:1001A0006D420CDD2C4480EA020281EA030382EAFC
:1001B000000083EA010180EA020281EA0303362D8E
:1001C00088BF30BD11F0004F4FEA01314FF4801C61
:1001D0004CEA113102D0404261EB410113F0004F73
:1001E0004FEA03334CEA133302D0524263EB43032A
:1001F00094EA050F00F0A780A4F10104D5F1200EC8
:100200000DDB02FA0EFC22FA05F2801841F1000122
:1002100003FA0EF2801843FA05F359410EE0A5F1F6
:1002200020050EF1200E012A03FA0EFC28BF4CF027
:10023000020C43FA05F3C01851EBE37101F00045DD
:1002400007D54FF0000EDCF1000C7EEB00006EEBEA
:100250000101B1F5801F1BD3B1F5001F0CD3490874
:100260005FEA30004FEA3C0C04F101044FEA4452CB
:1002700012F5800F80F09A80BCF1004F08BF5FEA52
:10028000500C50F1000041EB045141EA050130BD32
:100290005FEA4C0C404141EB0101013C28BFB1F544
:1002A000801FE9D291F0000F04BF01460020B1FA8F
:1002B00081F308BF2033A3F10B03B3F120020CDA62
:1002C0000C3208DD02F1140CC2F10C0201FA0CF040
:1002D00021FA02F10CE002F11402D8BFC2F1200CA5
:1002E00001FA02F120FA0CFCDCBF41EA0C0190405B
:1002F000E41AA2BF01EB0451294330BD6FEA0404A4
:100300001F3C1CDA0C340EDC04F11404C4F120028E
:1003100020FA04F001FA02F340EA030021FA04F3A0
:1003200045EA030130BDC4F10C04C4F1200220FAF7
:1003300002F001FA04F340EA0300294630BD21FA35
:1003400004F0294630BD94F0000F83F4801306BFFB
:1003500081F480110134013D4EE77FEA645C18BFEF
:100360007FEA655C29D094EA050F08BF90EA020F86
:1003700005D054EA000C04BF1946104630BD91EA7E
:10038000030F1EBF0021002030BD5FEA545C05D181
:100390004000494128BF41F0004130BD14F58004C0
:1003A0003CBF01F5801130BD01F0004545F0FE4134
:1003B00041F470014FF0000030BD7FEA645C1ABF69
:1003C000194610467FEA655C1CBF0B46024650EAA0
:1003D000013406BF52EA033591EA030F41F40021CC
:1003E00030BD00BF90F0000F04BF0021704730B552
:1003F0004FF4806404F132044FF000054FF0000127
:1004000050E700BF90F0000F04BF0021704730B5E7
:100410004FF4806404F1320410F0004548BF4042BC
:100420004FF000013EE700BF42004FEAE2014FEA11
:1004300031014FEA02701FBF12F07F4393F07F4FEC
:1004400081F06051704732F07F4208BF704793F0EF
:100450007F4F04BF41F40021704730B54FF4607402
:1004600001F0004521F000411CE700BF50EA010205
:1004700008BF704730B54FF000050AE050EA0102AE
:1004800008BF704730B511F0004502D5404261EB1E
:1004900041014FF4806404F132045FEA915C3FF45F
:1004A000D8AE4FF003025FEADC0C18BF03325FEAFC
:1004B000DC0C18BF033202EBDC02C2F1200300FAAD
:1004C00003FC20FA02F001FA03FE40EA0E0021FAD2
:1004D00002F11444BDE600BF70B54FF0FF0C4CF4C0
:1004E000E06C1CEA11541DBF1CEA135594EA0C0F72
:1004F00095EA0C0F00F0DEF82C4481EA030621EAAD
:100500004C5123EA4C5350EA013518BF52EA0335E7
:1005100041F4801143F4801338D0A0FB02CE4FF099
:100520000005E1FB02E506F00042E0FB03E54FF0C9
:100530000006E1FB03569CF0000F18BF4EF0010EC1
:10054000A4F1FF04B6F5007F64F5407404D25FEABD
:100550004E0E6D4146EB060642EAC62141EA555170
:100560004FEAC52040EA5E504FEACE2EB4F1FD0CB2
:1005700088BFBCF5E06F1ED8BEF1004F08BF5FEA30
:10058000500E50F1000041EB045170BD06F00046E2
:1005900046EA010140EA020081EA0301B4EB5C048F
:1005A000C2BFD4EB0C0541EA045170BD41F4801187
:1005B0004FF0000E013C00F3AB8014F1360FDEBFAC
:1005C000002001F0004170BDC4F10004203C35DA88
:1005D0000C341BDC04F11404C4F1200500FA05F30B
:1005E00020FA04F001FA05F240EA020001F00042AC
:1005F00021F0004110EBD37021FA04F642EB060122
:100600005EEA430E08BF20EAD37070BDC4F10C044B
:10061000C4F1200500FA04F320FA05F001FA04F20F
:1006200040EA020001F0004110EBD37041F10001FB
:100630005EEA430E08BF20EAD37070BDC4F1200506
:1006400000FA05F24EEA020E20FA04F301FA05F26E
:1006500043EA020321FA04F001F0004121FA04F216
:1006600020EA020000EBD3705EEA430E08BF20EAE6
:10067000D37070BD94F0000F0FD101F00046400020
:1006800041EB010111F4801F08BF013CF7D041EAA2
:10069000060195F0000F18BF704703F000465200A6
:1006A00043EB030313F4801F08BF013DF7D043EA77
:1006B0000603704794EA0C0F0CEA135518BF95EA2D
:1006C0000C0F0CD050EA410618BF52EA4306D1D1B4
:1006D00081EA030101F000414FF0000070BD50EAD3
:1006E000410606BF1046194652EA430619D094EA5D
:1006F0000C0F02D150EA013613D195EA0C0F05D147
:1007000052EA03361CBF104619460AD181EA03019A
:1007100001F0004141F0FE4141F470014FF0000052
:1007200070BD41F0FE4141F4780170BD70B54FF0ED
:10073000FF0C4CF4E06C1CEA11541DBF1CEA13556D
:1007400094EA0C0F95EA0C0F00F0A7F8A4EB05044F
:1007500081EA030E52EA03354FEA013100F0888046
:100760004FEA03334FF0805545EA131343EA12630F
:100770004FEA022245EA111545EA10654FEA0026C4
:100780000EF000419D4208BF964244F1FD0404F57D
:10079000407402D25B084FEA3202B61A65EB0305D9
:1007A0005B084FEA32024FF480104FF4002CB6EB96
:1007B000020E75EB030E22BFB61A754640EA0C0016
:1007C0005B084FEA3202B6EB020E75EB030E22BF56
:1007D000B61A754640EA5C005B084FEA3202B6EB97
:1007E000020E75EB030E22BFB61A754640EA9C0056
:1007F0005B084FEA3202B6EB020E75EB030E22BF26
:10080000B61A754640EADC0055EA060E18D04FEAE3
:10081000051545EA16754FEA06164FEAC30343EA83
:1008200052734FEAC2025FEA1C1CC0D111F4801F50
:100830000BD141EA00014FF000004FF0004CB6E749
:1008400011F4801F04BF01430020B4F1FD0C88BFE8
:10085000BCF5E06F3FF6AFAEB5EB030C04BFB6EBF3
:10086000020C5FEA500C50F1000041EB045170BDE6
:100870000EF0004E4EEA113114EB5C04C2BFD4EB13
:100880000C0541EA045170BD41F480114FF0000E97
:10089000013C90E645EA060E8DE60CEA135594EA13
:1008A0000C0F08BF95EA0C0F3FF43BAF94EA0C0F16
:1008B0000AD150EA01347FF434AF95EA0C0F7FF48B
:1008C00025AF104619462CE795EA0C0F06D152EADF
:1008D00003353FF4FDAE1046194622E750EA4106C3
:1008E00018BF52EA43067FF4C5AE50EA41047FF4D4
:1008F0000DAF52EA43057FF4EBAE12E74FF0FF3C39
:1009000006E000BF4FF0010C02E000BF4FF0010C09
:100910004DF804CD4FEA410C7FEA6C5C4FEA430C82
:1009200018BF7FEA6C5C1BD001B050EA410C0CBFD1
:1009300052EA430C91EA030F02BF90EA020F002033
:10094000704710F1000F91EA030F58BF994208BF9A
:1009500090422CBFD8176FEAE37040F00100704757
:100960004FEA410C7FEA6C5C02D150EA013C07D1AE
:100970004FEA430C7FEA6C5CD6D152EA033CD3D0F9
:100980005DF8040B704700BF8446104662468C46F3
:100990001946634600E000BF01B5FFF7B7FF002826
:1009A00048BF10F1000F01BD4DF808EDFFF7F4FF4F
:1009B0000CBF012000205DF808FB00BF4DF808EDDA
:1009C000FFF7EAFF34BF012000205DF808FB00BFFD
:1009D0004DF808EDFFF7E0FF94BF012000205DF81F
:1009E00008FB00BF4DF808EDFFF7CEFF94BF0120D4
:1009F00000205DF808FB00BF4DF808EDFFF7C4FFCD
:100A000034BF012000205DF808FB00BF4FEA410C15
:100A10007FEA6C5C02D150EA013C0AD14FEA430CF8
:100A20007FEA6C5C02D152EA033C02D14FF0000035
:100A300070474FF0010070474FEA410212F5001273
:100A400015D211D56FF47873B3EB625212D94FEA15
:100A5000C12343F0004343EA505311F0004F23FAFF
:100A600002F018BF404270474FF00000704750EA54
:100A7000013005D111F0004008BF6FF00040704711
:100A80004FF00000704700BF4A0011D212F500126B
:100A900011D20DD56FF47873B3EB62520ED44FEAD6
:100AA000C12343F0004343EA505323FA02F0704756
:100AB0004FF00000704750EA013002D14FF0FF3094
:100AC00070474FF00000704780F0004002E000BF28
:100AD00081F0004142001FBF5FEA410392EA030F29
:100AE0007FEA226C7FEA236C6AD04FEA1262D2EB73
:100AF0001363C1BFD218414048404140B8BF5B4278
:100B0000192B88BF704710F0004F40F4000020F010
:100B10007F4018BF404211F0004F41F4000121F026
:100B20007F4118BF494292EA030F3FD0A2F1010270
:100B300041FA03FC10EB0C00C3F1200301FA03F1AE
:100B400000F0004302D5494260EB4000B0F5000FD1
:100B500013D3B0F1807F06D340084FEA310102F190
:100B60000102FE2A51D2B1F1004F40EBC25008BF42
:100B700020F0010040EA03007047490040EB00000C
:100B8000013A28BFB0F5000FEDD2B0FA80FCACF10D
:100B9000080CB2EB0C0200FA0CF0AABF00EBC2503A
:100BA00052421843BCBFD0401843704792F0000F28
:100BB00081F4000106BF80F400000132013BB5E77B
:100BC0004FEA41037FEA226C18BF7FEA236C21D0F1
:100BD00092EA030F04D092F0000F08BF0846704756
:100BE00090EA010F1CBF0020704712F07F4F04D124
:100BF000400028BF40F00040704712F100723CBF37
:100C000000F50000704700F0004343F0FE4040F460
:100C1000000070477FEA226216BF08467FEA23631E
:100C20000146420206BF5FEA412390EA010F40F409
:100C3000800070474FF0000304E000BF10F0004355
:100C400048BF40425FEA000C08BF704743F096433C
:100C500001464FF000001CE050EA010208BF704757
:100C60004FF000030AE000BF50EA010208BF7047DE
:100C700011F0004302D5404261EB41015FEA010CF3
:100C800002BF84460146002043F0B64308BFA3F1EB
:100C90008053A3F50003BCFA8CF2083AA3EBC253CD
:100CA00010DB01FA02FC634400FA02FCC2F12002EC
:100CB000BCF1004F20FA02F243EB020008BF20F023
:100CC0000100704702F1200201FA02FCC2F1200289
:100CD00050EA4C0021FA02F243EB020008BF20EA7E
:100CE000DC7070474FF0FF0C1CEAD0521EBF1CEAAC
:100CF000D15392EA0C0F93EA0C0F6FD01A4480EA9A
:100D0000010C400218BF5FEA41211ED04FF0006382
:100D100043EA501043EA5111A0FB01310CF00040AE
:100D2000B1F5000F3EBF490041EAD3715B0040EAD4
:100D3000010062F17F02FD2A1DD8B3F1004F40EBA4
:100D4000C25008BF20F00100704790F0000F0CF077
:100D5000004C08BF49024CEA502040EA51207F3A3B
:100D6000C2BFD2F1FF0340EAC250704740F4000016
:100D70004FF00003013A5DDC12F1190FDCBF00F007
:100D800000407047C2F10002410021FA02F1C2F1B5
:100D9000200200FA02FC5FEA310040F1000053EA51
:100DA0004C0308BF20EADC70704792F0000F00F09F
:100DB000004C02BF400010F4000F013AF9D040EAA5
:100DC0000C0093F0000F01F0004C02BF490011F439
:100DD000000F013BF9D041EA0C018FE70CEAD15337
:100DE00092EA0C0F18BF93EA0C0F0AD030F0004CB7
:100DF00018BF31F0004CD8D180EA010000F000406B
:100E0000704790F0000F17BF90F0004F084691F028
:100E1000000F91F0004F14D092EA0C0F01D1420262
:100E20000FD193EA0C0F03D14B0218BF084608D12B
:100E300080EA010000F0004040F0FE4040F4000075
:100E4000704740F0FE4040F4400070474FF0FF0C08
:100E50001CEAD0521EBF1CEAD15392EA0C0F93EA4F
:100E60000C0F69D0A2EB030280EA010C49024FEAA1
:100E7000402037D04FF0805343EA111143EA10135A
:100E80000CF000408B4238BF5B0042F17D024FF412
:100E9000000C8B4224BF5B1A40EA0C00B3EB510FED
:100EA00024BFA3EB510340EA5C00B3EB910F24BFD6
:100EB000A3EB910340EA9C00B3EBD10F24BFA3EB5B
:100EC000D10340EADC001B0118BF5FEA1C1CE0D123
:100ED000FD2A3FF650AF8B4240EBC25008BF20F0D6
:100EE000010070470CF0004C4CEA50207F32C2BF2A
:100EF000D2F1FF0340EAC250704740F400004FF0C7
:100F00000003013A37E792F0000F00F0004C02BFF7
:100F1000400010F4000F013AF9D040EA0C0093F0C1
:100F2000000F01F0004C02BF490011F4000F013B1B
:100F3000F9D041EA0C0195E70CEAD15392EA0C0F83
:100F400008D142027FF47DAF93EA0C0F7FF470AFBB
:100F5000084676E793EA0C0F04D14B023FF44CAFFE
:100F600008466EE730F0004C18BF31F0004CCAD193
:100F700030F000427FF45CAF31F000437FF43CAFCF
:100F80005FE700BF42000ED2B2F1FE4F0BD34FF02D
:100F90009E03B3EB126209D44FEA002343F00043EF
:100FA00023FA02F070474FF00000704712F1610F12
:100FB00001D1420202D14FF0FF3070474FF00000E4
:100FC000704700BF80B582B000AF78607B681B6857
:100FD000184600F0DFFA00BF0837BD4680BD80B577
:100FE00082B000AF78600B467B807B681B687A8894
:100FF0001146184600F0D9FA00BF0837BD4680BD3B
:1010000080B582B000AF78600B467B807B681B6840
:101010007A881146184600F0DFFA00BF0837BD464F
:1010200080BD80B586B000AF786007F1080300226C
:101030001A605A609A60DA607B689B88BB60012303
:10104000FB6002237B617B689B6807F10802114605
:10105000184602F063F800BF1837BD4680BD80B562
:1010600086B000AF786007F1080300221A605A606A
:101070009A60DA607B689B88BB600023FB60012379
:101080003B617B689B6807F108021146184602F035
:1010900045F800BF1837BD4680BD80B582B000AFAF
:1010A00078600B46FB707B6898687B689B88FA7851
:1010B000194602F0CEF900BF0837BD4680BD80B5A5
:1010C00082B000AF78607B689A687B689B8819461D
:1010D000104602F0A7F9034618460837BD4680BD02
:1010E00080B584B000AF78600023FB737868FFF7A9
:1010F00098FF00217868FFF7D0FF4FF4F07178680F
:10110000FFF76DFF7868FFF7AAFF50217868FFF7B7
:1011100066FF7868FFF7D3FF0346002B02D1012357
:10112000FB7301E00023FB734FF4C8717868FFF78D
:1011300056FFFB7B18461037BD4680BD80B584B096
:1011400000AF78600B46FB707868FFF76AFF0023FA
:10115000FB602BE0FA78FB6842FA03F303F001032B
:10116000002B12D07868FFF75CFF00217868FFF74A
:1011700094FF01217868FFF732FF7868FFF76FFF6F
:1011800032217868FFF72BFF0DE07868FFF749FF01
:1011900000217868FFF781FF32217868FFF71FFF91
:1011A0007868FFF75CFFFB680133FB60FB68072B87
:1011B000D0DD00BF00BF1037BD4680BD80B584B014
:1011C00000AF78600023FB737868FFF748FF0023C7
:1011D000BB6024E07868FFF724FF00217868FFF700
:1011E0005CFF01217868FFF7FAFE7868FFF737FFA8
:1011F0007868FFF764FF0346002B09D00122BB6823
:1012000002FA03F35AB297F90F3013435BB2FB7340
:1012100032217868FFF7E3FEBB680133BB60BB682F
:10122000072BD7DDFB7B18461037BD4680BD80B548
:1012300084B000AFF860B9607A607B80FB687A6840
:101240009A60FB687A889A80FB68BA681A60F868C6
:10125000FFF7B8FE00BF1037BD4680BD80B584B033
:1012600000AF78607868FFF73BFF01217868FFF7EF
:10127000C7FECC217868FFF761FF44217868FFF74B
:101280005DFFC8217868FFF7BBFE7868FFF728FF8D
:1012900001217868FFF7B4FECC217868FFF74EFF94
:1012A000BE217868FFF74AFF7868FFF787FF03469B
:1012B000FB737868FFF782FF0346BB73BB7B1A02A0
:1012C000FB7B13431846FFF7B9FC0346BB604FF0A6
:1012D0008341B868FFF7BAFD03461A467B68DA60B7
:1012E0007B68DB6818461037BD4680BD80B584B08A
:1012F00000AFF860B9607A603B60FB68BA681A605A
:10130000FB687A685A607968B86802F065FF3B7ECE
:101310001946F86800F01CF83968F86800F062F8BF
:1013200000BF1037BD4680BD80B584B000AFF86007
:10133000B9607A60FB68BA689A60FB687A68DA60BC
:101340007968B86803F08CF800BF1037BD4680BDDF
:1013500080B485B000AF78600B46FB70FB78642BDF
:1013600001D96423FB70FB780A2B01D80023FB70A2
:101370007B68FA781A757B681B68DB680133FA783A
:1013800002FB03F3164AA2FB03235B09FB817B6884
:101390005B68002B05D17B681B681B68FA895A6360
:1013A00018E07B685B68042B05D17B681B681A68B2
:1013B000FB8993630EE07B685B68082B05D17B6833
:1013C0001B681A68FB89D36304E07B681B681A6892
:1013D000FB89136400BF1437BD4680BC704700BF53
:1013E0001F85EB5180B584B000AF786039607B68B1
:1013F0003A681A617B681B68DB68FB6002F03CFCA2
:10140000B860FB6801333A6802FB03F3BA68B2FBC9
:10141000F3F34FF08042013B936200BF1037BD46AB
:1014200080BD000080B483B000AF78600D4B1A8897
:101430007B68DA820B4B1B8841F2F812934203D986
:10144000084B41F2F8121A80064B1B88002B02D180
:10145000044B00221A80034B1B8818460C37BD46EC
:1014600080BC70473C02002080B500AF114B1B6868
:10147000C82B18D1104B9B681B685B6A0F4A13601E
:101480000E4B1B680E4A12681146184600F01CF8F5
:1014900003461A460B4B1A80084B1B68084A136018
:1014A000044B00221A60034B1B680133014A13608E
:1014B00000BF80BD300200201C000020340200204C
:1014C000380200203C02002080B483B000AF786076
:1014D00039607A683B689A4205D20B4B9B68DB689F
:1014E0007A6813447B607A683B68D31A4FF496722B
:1014F00002FB03F3054AA2FB0323DB099BB2184658
:101500000C37BD4680BC70471C000020C3971B628F
:1015100080B483B000AF0346FB71FB7918460C37EB
:10152000BD4680BC7047000080B584B000AF7860D5
:101530000023FB814FF0FF31786801F035FA7868BD
:1015400001F038FB0346FB81FB891846FEF75AFF82
:101550000DA3D3E90023FEF7BFFF02460B4610465A
:1015600019464FF000020A4BFEF700FE02460B46FA
:1015700010461946FFF788FA0346DBB218461037C3
:10158000BD4680BDAFF300800AD7A3703D0A97BF68
:101590000000594080B582B000AF7860786802F0F2
:1015A00081FD00BF0837BD4680BD80B483B000AF69
:1015B00078600B467B807B681B6800225A6200BF04
:1015C0007B681B685A6A7B889A42F9D300BF00BFC8
:1015D0000C37BD4680BC704780B582B000AF7860E4
:1015E0000B467B8004E04FF47A717868FFF7DDFFEB
:1015F0007B885A1E7A80002BF5D100BF00BF0837C8
:10160000BD4680BD80B500AF00F0F2F8332000F099
:1016100093F9322000F090F9282000F08DF9012094
:1016200000F08AF90C2000F087F9062000F084F918
:1016300000BF80BD80B586B000AF786007F10C03B5
:101640007A680649184604F067FA07F10C03184651
:1016500000F006F800BF1837BD4680BD20800008A6
:1016600090B585B000AF78600023FB7309E0FB7B89
:101670007A6813441B78184600F07EF9FB7B01332F
:10168000FB73FC7B7868FEF763FD03469C42EED358
:1016900000BF00BF1437BD4690BD80B582B000AF1B
:1016A00003460A46FB711346BB71BB79002B07D179
:1016B000FB7963F07F03DBB2184600F03DF90AE0E6
:1016C000FB794033DBB25BB263F07F035BB2DBB22A
:1016D000184600F031F900BF0837BD4680BD000054
:1016E00080B500AF00210020FFF7D7FF0B48FFF7C0
:1016F000B7FF00210620FFF7D0FF0948FFF7B0FF32
:1017000001210020FFF7C9FF01210620FFF7C5FFD7
:101710000448FFF7A5FF00BF80BD00BF248000087C
:101720002C8000083880000880B582B000AF0346E6
:101730000A46FB711346BB80264B1B78FA799A4206
:101740001CD000210020FFF7A8FF2348FFF788FFE7
:1017500000210620FFF7A1FF2048FFF781FF0021AD
:101760000620FFF79AFFFB791846FFF763FF002179
:101770000C20FFF792FF1A48FFF772FF194B1B88E6
:10178000BA889A421CD001210020FFF786FF164834
:10179000FFF766FF01210620FFF77FFF0F48FFF7E5
:1017A0005FFF01210620FFF778FFBB881846FFF78F
:1017B00041FF01210C20FFF770FF0C48FFF750FF9D
:1017C000084ABB881380034AFB79137000BF0837AF
:1017D000BD4680BD18000020448000084C800008F1
:1017E000548000081A00002058800008608000081B
:1017F00080B588B000AF07F1100300221A605A606C
:101800009A60DA604A4B9B69494A43F0040393614A
:10181000474B9B6903F00403FB60FB68444B9B69E7
:10182000434A43F008039361414B9B6903F008036B
:10183000BB60BB683E4B9B693D4A43F0100393611C
:101840003B4B9B6903F010037B607B6801233B618A
:1018500001237B610023BB610323FB6107F11003BC
:101860001946344801F05AFC4FF400633B610123F0
:101870007B610023BB610323FB6107F11003194661
:101880002C4801F04BFC4FF480633B6101237B61EA
:101890000023BB610323FB6107F1100319462548B0
:1018A00001F03CFC00224FF48061224801F0D1FDA0
:1018B0004FF480533B6101237B610023BB61032311
:1018C000FB6107F1100319461A4801F027FC4FF499
:1018D00000533B6101237B610023BB610323FB6158
:1018E00007F110031946134801F018FC4FF4804328
:1018F0003B6101237B610023BB610323FB6107F193
:10190000100319460B4801F009FC4FF400433B61FA
:1019100001237B610023BB610323FB6107F11003FB
:101920001946044801F0FAFB00BF2037BD4680BDD0
:1019300000100240000C014080B582B000AF0346A9
:10194000FB71002201210B4801F083FDFB791B098B
:10195000DBB20421184600F02FF8FB7903F00F03E7
:10196000DBB20421184600F027F800BF0837BD4657
:1019700080BD00BF000C014080B582B000AF0346BF
:10198000FB71012201210B4801F063FDFB791B096A
:10199000DBB20421184600F00FF8FB7903F00F03C7
:1019A000DBB20421184600F007F800BF0837BD4637
:1019B00080BD00BF000C014080B584B000AF03467D
:1019C0000A46FB711346BB710023FB7323E0FA79CF
:1019D000FB7B42FA03F303F00103002B0CD1FB7BEA
:1019E000184A52F82300FB7B174A32F813300022C2
:1019F000194601F02EFD0BE0FB7B124A52F8230042
:101A0000FB7B114A32F813300122194601F021FD07
:101A1000FB7B0133FB73FA7BBB799A42D7D301225C
:101A20004FF40061094801F014FD012000F012FE9E
:101A300000224FF40061054801F00BFD00BF103794
:101A4000BD4680BD0000002010000020000C0140B9
:101A500080B582B002AF00F09BFD00F083F800F08B
:101A600035FA00F009FA00F00DF900F063F900F022
:101A7000B5F900F0C9F8FFF7C5FD314800F0E6FE02
:101A80000223304A30493148FFF7D1FB304B1B7DF0
:101A900000934FF4FA630C222E492D48FFF726FCE1
:101AA00000222D492A48FFF73FFCFFF719FE27487F
:101AB000FFF7D4FB03461846FFF764FA0346DAB291
:101AC000264B1A70224B1B7E032BF0D0204B1B7E23
:101AD000022B06D0022B19DC002B14D0012B0AD0CC
:101AE00014E01E4B1B781846FFF712FD03461A46FA
:101AF000174B1A750BE01248FFF716FD03461A46FE
:101B0000134B1A7503E0124B0A221A7500BF104BD3
:101B10001B7D19460E48FFF71BFCC82000F09AFDFC
:101B20000B48FFF77FFC03461A460D4B1A800B4B00
:101B30001B780B4A128811461846FFF7F5FDB6E7E9
:101B400040020020000C0140000300208C03002014
:101B50001C00002070020020B80200209C0300201E
:101B60009E03002080B594B000AF07F1280328221F
:101B70000021184603F068FB07F1140300221A60E5
:101B80005A609A60DA601A613B1D00221A605A603E
:101B90009A60DA600223BB620123BB631023FB63FC
:101BA00000237B6407F12803184601F09BFC0346E1
:101BB000002B01D000F05AFA0F237B610023BB6198
:101BC0000023FB614FF480633B6200237B6207F1DB
:101BD00014030021184601F007FF0346002B01D033
:101BE00000F044FA02237B600023FB603B1D184693
:101BF00002F092F80346002B01D000F037FA00BF44
:101C00005037BD4680BD000080B584B000AF3B1D9D
:101C100000221A605A609A60184B194A1A60174BD2
:101C200000229A60154B01221A73144B00221A7578
:101C3000124B4FF46022DA61104B00225A600F4BB6
:101C400001221A610D4800F029FD0346002B01D046
:101C500000F00CFA04237B600123BB600023FB60CF
:101C60003B1D1946054800F0B1FF0346002B01D08B
:101C700000F0FCF900BF1037BD4680BD40020020D7
:101C80000024014080B58AB000AF07F12003002294
:101C90001A605A603B1D00221A605A609A60DA602E
:101CA0001A615A619A61224B4FF080421A60204BB0
:101CB00008225A601E4B00229A601D4B6322DA6094
:101CC0001B4B00221A611A4B00229A61184802F03D
:101CD00033FA0346002B01D000F0C8F900233B6221
:101CE00000237B6207F120031946114803F06CF8CA
:101CF0000346002B01D000F0B9F960237B6000237C
:101D0000BB600023FB6000237B613B1D0C22194656
:101D1000074802F033FC0346002B01D000F0A6F97F
:101D2000034800F08FFA00BF2837BD4680BD00BFD2
:101D30007002002080B58CB000AF07F10C032422A4
:101D40000021184603F080FA3B1D00221A605A60F9
:101D5000204B214A1A601F4B00225A601D4B002263
:101D60009A601C4B4FF6FF72DA601A4B00221A6120
:101D7000184B00229A610123FB6002233B6101237F
:101D80007B610023BB610023FB6102233B620123D3
:101D90007B620023BB620023FB6207F10C03194640
:101DA0000C4802F0BBFA0346002B01D000F05EF9AC
:101DB00000237B600023BB603B1D1946054803F0F0
:101DC00003F80346002B01D000F050F900BF303774
:101DD000BD4680BDB80200200004004080B586B03A
:101DE00000AF07F1080300221A605A609A60DA60B7
:101DF0003B4600221A605A601D4B1E4A1A601C4B5B
:101E000047225A601A4B00229A60194B4FF6FF7214
:101E1000DA60174B00221A61154B00229A611448B0
:101E200002F0F0F80346002B01D000F01FF94FF448
:101E30008053BB6007F1080319460D4802F05CFCB3
:101E40000346002B01D000F011F900233B60002372
:101E50007B603B461946064802F0B6FF0346002B5E
:101E600001D000F003F900BF1837BD4680BD00BFA8
:101E7000000300200008004080B500AF114B124A5B
:101E80001A60104B4FF4E1325A600E4B00229A60F8
:101E90000C4B0022DA600B4B00221A61094B0C221A
:101EA0005A61084B00229A61064B0022DA6105480C
:101EB00002F0E8FF0346002B01D000F0D7F800BF86
:101EC00080BD00BF480300200038014080B588B0C5
:101ED00000AF07F1100300221A605A609A60DA60BE
:101EE0003F4B9B693E4A43F0100393613C4B9B6917
:101EF00003F01003FB60FB68394B9B69384A43F0E1
:101F000020039361364B9B6903F02003BB60BB68E1
:101F1000334B9B69324A43F004039361304B9B6916
:101F200003F004037B607B682D4B9B692C4A43F0D4
:101F3000080393612A4B9B6903F008033B603B68ED
:101F400000224FF40051274801F083FA00220221B9
:101F5000254801F07EFA4FF400533B6101237B6179
:101F60000023BB610223FB6107F1100319461D48E2
:101F700001F0D4F823233B611C4B7B610123BB613F
:101F800007F1100319461A4801F0C8F802233B6113
:101F900001237B610023BB610223FB6107F1100376
:101FA0001946114801F0BAF800220021062001F07C
:101FB00078F8062001F091F800220021072001F0B6
:101FC00070F8072001F089F800220021172001F0A5
:101FD00068F8172001F081F800BF2037BD4680BDAA
:101FE0000010024000100140000C014000002110D0
:101FF0000008014080B582B000AF0346FB804FF47B
:1020000000510F4801F03DFAFB88202B0ED0202B09
:1020100010DC012B02D0022B04D00BE0094B022272
:102020001A7608E0074B01221A7604E0054B0022DD
:102030001A7600E000BF00BF0837BD4680BD00BF74
:10204000001001401C00002080B582B000AF786015
:10205000391D4FF4FA730122034802F060FF7B68D8
:1020600018460837BD4680BD4803002080B400AF45
:1020700072B600BFFEE7000080B485B000AF154B1C
:102080009B69144A43F001039361124B9B6903F06F
:102090000103BB60BB680F4BDB690E4A43F0805302
:1020A000D3610C4BDB6903F080537B607B680A4B88
:1020B0005B68FB60FB6823F0E063FB60FB6843F058
:1020C0000073FB60044AFB68536000BF1437BD46D1
:1020D00080BC7047001002400000014080B588B00D
:1020E00000AF786007F1100300221A605A609A600E
:1020F000DA607B681B68144A934221D1134B9B69B9
:10210000124A43F400739361104B9B6903F400730C
:10211000FB60FB680D4B9B690C4A43F00403936121
:102120000A4B9B6903F00403BB60BB6810233B614F
:1021300003237B6107F110031946054800F0EEFF09
:1021400000BF2037BD4680BD002401400010024082
:102150000008014080B485B000AF78607B681B68E0
:10216000B3F1804F0BD1084BDB69074A43F0010301
:10217000D361054BDB6903F00103FB60FB6800BF23
:102180001437BD4680BC70470010024080B588B04F
:1021900000AF786007F1100300221A605A609A605D
:1021A000DA607B681B68154A934223D1144BDB69C4
:1021B000134A43F00203D361114BDB6903F00203BE
:1021C000FB60FB680E4B9B690D4A43F0040393616F
:1021D0000B4B9B6903F00403BB60BB68C0233B61EE
:1021E00000237B610023BB6107F1100319460548FA
:1021F00000F094FF00BF2037BD4680BD00040040C2
:10220000001002400008014080B485B000AF786043
:102210007B681B68094A93420BD1094BDB69084A6A
:1022200043F00403D361064BDB6903F00403FB6056
:10223000FB6800BF1437BD4680BC704700080040F3
:102240000010024080B588B000AF786007F110033D
:1022500000221A605A609A60DA607B681B68B3F1EA
:10226000804F17D10D4B9B690C4A43F004039361D7
:102270000A4B9B6903F00403FB60FB6808233B6186
:1022800002237B610223FB6107F110031946044816
:1022900000F044FF00BF2037BD4680BD0010024063
:1022A0000008014080B588B000AF786007F11003E6
:1022B00000221A605A609A60DA607B681B681C4AC8
:1022C000934231D11B4B9B691A4A43F4804393617B
:1022D000184B9B6903F48043FB60FB68154B9B69BB
:1022E000144A43F004039361124B9B6903F0040307
:1022F000BB60BB684FF400733B6102237B61032327
:10230000FB6107F1100319460B4800F007FF4FF47B
:1023100080633B6100237B610023BB6107F11003F5
:102320001946054800F0FAFE00BF2037BD4680BDC3
:1023300000380140001002400008014080B400AFA6
:10234000FEE780B400AFFEE780B400AFFEE780B4E4
:1023500000AFFEE780B400AFFEE780B400AF00BF7F
:10236000BD4680BC704780B400AF00BFBD4680BC96
:10237000704780B400AF00BFBD4680BC704780B5D9
:1023800000AF00F04BF900F0C2FE00BF80BD80B589
:1023900000AF012001F08EF800BF80BD80B500AF16
:1023A000022001F087F800BF80BD80B500AF20207B
:1023B00001F080F800BF80BD80B400AF0123184653
:1023C000BD4680BC704780B582B000AF7860396090
:1023D00002F010FF034616221A604FF0FF33184632
:1023E0000837BD4680BD80B582B000AF78604FF041
:1023F000FF317868FFF7E7FFFEE780B586B000AFF2
:10240000F860B9607A6000237B610AE0AFF3008076
:102410000146BB685A1CBA60CAB21A707B690133A4
:102420007B617A697B689A42F0DB7B6818461837D3
:10243000BD4680BD80B586B000AFF860B9607A60F7
:1024400000237B6109E0BB685A1CBA601B78184600
:10245000FFF7FAFD7B6901337B617A697B689A42F9
:10246000F1DB7B6818461837BD4680BD80B483B069
:1024700000AF78604FF0FF3318460C37BD4680BC84
:10248000704780B483B000AF786039603B684FF428
:1024900000525A60002318460C37BD4680BC704776
:1024A00080B483B000AF7860012318460C37BD4676
:1024B00080BC704780B485B000AFF860B9607A60C6
:1024C000002318461437BD4680BC704780B586B0DF
:1024D00000AF7860144A154BD31A7B617B693B616E
:1024E000134B1B68002B02D1114B124A1A60104B80
:1024F0001A687B6813443A699A4207D202F07AFE5E
:1025000003460C221A604FF0FF3309E0084B1B68AA
:10251000FB60074B1A687B681344054A1360FB682D
:1025200018461837BD4680BD00500020000400004A
:10253000A0030020B803002080B400AF00BFBD4658
:1025400080BC70470C480D490D4A002302E0D45866
:10255000C4500433C4188C42F9D30A4A0A4C0023ED
:1025600001E013600432A242FBD3FFF7E5FF02F063
:1025700047FEFFF76DFA70470000002014020020AC
:102580007C84000814020020B8030020FEE700004D
:1025900080B500AF084B1B68074A43F01003136077
:1025A000032000F073FD0F2000F008F8FFF764FD32
:1025B0000023184680BD00BF0020024080B582B0D5
:1025C00000AF7860124B1A68124B1B7819464FF413
:1025D0007A73B3FBF1F3B2FBF3F3184600F08BFD13
:1025E0000346002B01D001230EE07B680F2B0AD895
:1025F000002279684FF0FF3000F053FD064A7B68F7
:102600001360002300E0012318460837BD4680BD53
:1026100038000020400000203C00002080B400AFC3
:10262000054B1B781A46054B1B681344034A13607D
:1026300000BFBD4680BC704740000020A4030020BE
:1026400080B400AF024B1B681846BD4680BC704783
:10265000A403002080B584B000AF7860FFF7F0FFDE
:10266000B8607B68FB60FB68B3F1FF3F05D00A4BA5
:102670001B781A46FB681344FB6000BFFFF7E0FFBE
:102680000246BB68D31AFA689A42F7D800BF00BF67
:102690001037BD4680BD00BF4000002080B586B029
:1026A00000AF78600023FB7500233B610023BB6013
:1026B0000023FB607B68002B01D10123BEE07B6817
:1026C0009B68002B7B689B6A002B09D17B680022EA
:1026D000DA627B68002283F824207868FFF7FEFC2A
:1026E000786800F0C5FB0346FB757B689B6A03F0C6
:1026F0001003002B40F09980FB7D002B40F095806B
:102700007B689B6A23F4885323F0020343F00202A0
:102710007B689A627B685A687B68DB691A437B68CE
:102720001B7B5B001343BA681343BB607B689B68E9
:10273000B3F5807F03D07B689B68012B02D14FF4F7
:10274000807300E000233A6913433B617B681B7D83
:10275000012B19D17B681B7B002B09D17B689B69FE
:10276000013B5A033B69134343F400633B610BE0B5
:102770007B689B6A43F020027B689A627B68DB6A15
:1027800043F001027B68DA627B681B685B6823F4B4
:1027900069417B681B683A690A435A607B681B6819
:1027A0009A68284B13407A681268B9680B439360A3
:1027B0007B689B68B3F5807F03D07B689B68012BA7
:1027C00004D17B681B69013B1B05FB607B681B68B0
:1027D000DB6A23F470017B681B68FA680A43DA62DB
:1027E0007B681B689A68184B1340BA689A420BD1F1
:1027F0007B680022DA627B689B6A23F0030343F064
:1028000001027B689A6218E07B689B6A23F01203DE
:1028100043F010027B689A627B68DB6A43F0010236
:102820007B68DA620123FB7507E07B689B6A43F0F3
:1028300010027B689A620123FB75FB7D18461837EE
:10284000BD4680BDFDF7E1FFFE0E1FFF80B584B0E1
:1028500000AF78600023FB737B6893F82430012B72
:1028600001D1022398E07B68012283F82420786854
:1028700000F0A4FA0346FB73FB7B002B40F087803B
:102880007B689B6A23F4407323F0010343F4807256
:102890007B689A627B681B68414A934205D1414B31
:1028A0005B6803F47023002B15D17B689B6A23F4CB
:1028B00080127B689A627B681B685B6803F48063A4
:1028C000002B26D07B689B6A23F4405343F480524C
:1028D0007B689A621DE07B689B6A43F480127B6888
:1028E0009A627B681B682F4A934204D07B681B68FE
:1028F0002B4A93420DD12B4B5B6803F48063002B72
:1029000007D07B689B6A23F4405343F480527B6872
:102910009A627B689B6A03F48053002B06D07B6825
:10292000DB6A23F006027B68DA6202E07B68002241
:10293000DA627B68002283F824207B681B686FF0D2
:1029400002021A607B681B689B6803F46023B3F57E
:10295000602F13D17B681B68114A934205D1114B3C
:102960005B6803F47023002B08D17B681B689A68AE
:102970007B681B6842F4A0029A600CE07B681B68CD
:102980009A687B681B6842F480129A6003E07B6857
:10299000002283F82420FB7B18461037BD4680BDFB
:1029A000002801400024014090B587B000AF786056
:1029B000396000237B610023FB6000233B61FFF74C
:1029C0003FFE78617B681B689B6803F48073002B73
:1029D0000BD07B689B6A43F020027B689A627B681D
:1029E000002283F824200123D3E07B681B685B6806
:1029F00003F48073002B31D17B681B68DB6A03F41E
:102A00007003002B2AD121E03B68B3F1FF3F1DD0BA
:102A10003B68002B07D0FFF713FE02467B69D31AF1
:102A20003A689A4212D27B681B681B6803F0020363
:102A3000002B0BD17B689B6A43F004027B689A628F
:102A40007B68002283F824200323A2E07B681B68B4
:102A50001B6803F00203002BD6D070E04F4B1C68BC
:102A6000022001F00FFA0346B4FBF3F27B681B6807
:102A700019694B4B0B40002B18D17B681B68D96838
:102A8000484B0B40002B11D17B681B681969464BE2
:102A90000B40002B08D17B681B68D968434B0B4067
:102AA000002B01D1142320E029231EE07B681B6842
:102AB00019693D4B0B40002B06D17B681B68D96818
:102AC0003A4B0B40002B0DD07B681B681969384BC3
:102AD0000B40002B08D17B681B68D968344B0B4036
:102AE000002B01D1542300E0FC2302FB03F33B61E4
:102AF00021E03B68B3F1FF3F1AD03B68002B07D0C1
:102B0000FFF79EFD02467B69D31A3A689A420FD2BC
:102B1000FB683A699A420BD97B689B6A43F00402CE
:102B20007B689A627B68002283F82420032330E0CC
:102B3000FB680133FB60FB683A699A42D9D87B682D
:102B40001B686FF012021A607B689B6A43F4007284
:102B50007B689A627B681B689B6803F46023B3F50B
:102B6000602F15D17B681B7B002B11D17B689B6A82
:102B700023F480727B689A627B689B6A03F48053BB
:102B8000002B05D17B689B6A43F001027B689A6247
:102B9000002318461C37BD4690BD00BF38000020FA
:102BA00024499224244992009224491292244900F3
:102BB0004992240080B483B000AF78607B681B68C2
:102BC000DB6C18460C37BD4680BC704780B485B0BE
:102BD00000AF786039600023FB730023BB607B6823
:102BE00093F82430012B01D10223DCE07B68012221
:102BF00083F824203B685B68062B1CD87B681B6825
:102C0000596B3B685A6813469B001344053B1F22CF
:102C100002FA03F3DB4319403B6818683B685A68C3
:102C200013469B001344053B00FA03F27B681B68C4
:102C30000A435A633CE03B685B680C2B1CD87B68FA
:102C40001B68196B3B685A6813469B001344233B6F
:102C50001F2202FA03F3DB4319403B6818683B6804
:102C60005A6813469B001344233B00FA03F27B6827
:102C70001B680A431A631BE07B681B68D96A3B68C0
:102C80005A6813469B001344413B1F2202FA03F388
:102C9000DB4319403B6818683B685A6813469B0041
:102CA0001344413B00FA03F27B681B680A43DA6273
:102CB0003B681B68092B1CD97B681B68D9683B687B
:102CC0001A6813465B0013441E3B072202FA03F303
:102CD000DB4319403B6898683B681A6813465B0001
:102CE00013441E3B00FA03F27B681B680A43DA6058
:102CF00019E07B681B6819693B681A6813465B001A
:102D00001344072202FA03F3DB4319403B68986837
:102D10003B681A6813465B00134400FA03F27B68B1
:102D20001B680A431A613B681B68102B03D03B6881
:102D30001B68112B32D17B681B681D4A934225D139
:102D40007B681B689B6803F40003002B26D17B681B
:102D50001B689A687B681B6842F400029A603B68B3
:102D60001B68102B1AD1134B1B68134AA2FB0323B9
:102D70009A0C13469B0013445B00BB6002E0BB68E7
:102D8000013BBB60BB68002BF9D107E07B689B6A05
:102D900043F020027B689A620123FB737B68002268
:102DA00083F82420FB7B18461437BD4680BC70474F
:102DB000002401403800002083DE1B4380B584B02E
:102DC00000AF78600023FB600023BB607B681B685A
:102DD0009B6803F00103012B40D07B681B689A6855
:102DE0007B681B6842F001029A601F4B1B681F4AF8
:102DF000A2FB03239B0CBB6002E0BB68013BBB60F2
:102E0000BB68002BF9D1FFF71BFCF8601FE0FFF750
:102E100017FC0246FB68D31A022B18D97B681B6883
:102E20009B6803F00103012B11D07B689B6A43F080
:102E300010027B689A627B68DB6A43F001027B6860
:102E4000DA627B68002283F82420012307E07B6894
:102E50001B689B6803F00103012BD8D1002318469F
:102E60001037BD4680BD00BF3800002083DE1B4305
:102E700080B584B000AF78600023FB607B681B687E
:102E80009B6803F00103012B2ED17B681B689A68B5
:102E90007B681B6822F001029A60FFF7D1FBF860A3
:102EA0001BE0FFF7CDFB0246FB68D31A022B14D9B7
:102EB0007B681B689B6803F00103012B0DD17B68C5
:102EC0009B6A43F010027B689A627B68DB6A43F07E
:102ED00001027B68DA62012307E07B681B689B685C
:102EE00003F00103012BDCD0002318461037BD4648
:102EF00080BD000080B485B000AF78607B6803F0CF
:102F00000703FB600C4BDB68BB60BA684FF6FF033E
:102F10001340BB60FB681A02BB68134343F0BF63F6
:102F200043F40033BB60044ABB68D36000BF14376E
:102F3000BD4680BC704700BF00ED00E080B400AF2C
:102F4000044BDB681B0A03F007031846BD4680BC30
:102F5000704700BF00ED00E080B483B000AF0346CF
:102F6000FB7197F90730002B0BDBFB7903F01F0295
:102F7000064997F907305B09012000FA02F241F88F
:102F8000232000BF0C37BD4680BC704700E100E045
:102F900080B483B000AF03463960FB7197F9073006
:102FA000002B0ADB3B68DAB20C4997F907301201B3
:102FB000D2B20B4483F800230AE03B68DAB2084936
:102FC000FB7903F00F03043B1201D2B20B441A76D3
:102FD00000BF0C37BD4680BC704700BF00E100E079
:102FE00000ED00E080B489B000AFF860B9607A60AD
:102FF000FB6803F00703FB61FB69C3F10703042BC4
:1030000028BF0423BB61FB690433062B02D9FB698B
:10301000033B00E000237B614FF0FF32BB6902FA03
:1030200003F3DA43BB681A407B699A404FF0FF31E3
:103030007B6901FA03F3D9437B680B4013431846BD
:103040002437BD4680BC704780B582B000AF786041
:103050007B68013BB3F1807F01D301230FE00A4A73
:103060007B68013B53600F214FF0FF30FFF790FF6B
:10307000054B00229A60044B07221A600023184671
:103080000837BD4680BD00BF10E000E080B582B0CB
:1030900000AF78607868FFF72DFF00BF0837BD46A6
:1030A00080BD80B586B000AF0346B9607A60FB731F
:1030B00000237B61FFF742FF78617A68B96878691D
:1030C000FFF790FF024697F90F3011461846FFF7B9
:1030D0005FFF00BF1837BD4680BD80B582B000AF2E
:1030E0000346FB7197F907301846FFF735FF00BF1D
:1030F0000837BD4680BD80B582B000AF7860786883
:10310000FFF7A2FF034618460837BD4680BD80B5CD
:1031100000AFFEF7A9F900BF80BD000080B48BB0FE
:1031200000AF7860396000237B6200233B6269E175
:1031300001227B6A02FA03F3FB613B681B68FA69B0
:103140001340BB61BA69FB699A4240F058813B6801
:103150005B689A4A93425ED0984A934275D8984ADF
:10316000934258D0964A93426FD8964A934252D08F
:10317000944A934269D8944A93424CD0924A9342DB
:1031800063D8924A934246D0904A93425DD8122B1C
:103190002AD8122B59D801A252F823F0173200086E
:1031A000F131000803320008453200084B320008B4
:1031B0004B3200084B3200084B3200084B320008FB
:1031C0004B3200084B3200084B3200084B320008EB
:1031D0004B3200084B3200084B3200084B320008DB
:1031E000F93100080D320008794A934213D02CE0DF
:1031F0003B68DB683B6229E03B68DB6804333B6289
:1032000024E03B68DB6808333B621FE03B68DB6817
:103210000C333B621AE03B689B68002B02D104230D
:103220003B6213E03B689B68012B05D108233B629E
:103230007B68FA691A6109E008233B627B68FA69D6
:103240005A6103E000233B6200E000BFBB69FF2B33
:1032500001D87B6801E07B6804337B61BB69FF2B8D
:1032600002D87B6A9B0002E07B6A083B9B003B61C3
:103270007B691A680F213B6901FA03F3DB431A40AB
:10328000396A3B6901FA03F31A437B691A603B68A8
:103290005B6803F08053002B00F0B1804D4B9B69BD
:1032A0004C4A43F0010393614A4B9B6903F00103CD
:1032B000BB60BB68484A7B6A9B08023352F82330E4
:1032C000FB607B6A03F003039B000F2202FA03F307
:1032D000DB43FA681340FB607B68404A934213D09B
:1032E0007B683F4A93420DD07B683E4A934207D0A9
:1032F0007B683D4A934201D1032306E0042304E0A6
:10330000022302E0012300E000237A6A02F00302B4
:1033100092009340FA681343FB602F497B6A9B0835
:103320000233FA6841F823203B685B6803F480337A
:10333000002B06D02D4B1A682C49BB6913430B6038
:1033400006E02A4B1A68BB69DB43284913400B602F
:103350003B685B6803F40033002B06D0234B5A68AC
:103360002249BB6913434B6006E0204B5A68BB6996
:10337000DB431E4913404B603B685B6803F48013DA
:10338000002B06D0194B9A681849BB6913438B6010
:1033900006E0164B9A68BB69DB43144913408B6007
:1033A0003B685B6803F40013002B21D00F4BDA68F5
:1033B0000E49BB691343CB6021E000BF000032100F
:1033C0000000311000002210000021100000121037
:1033D00000001110001002400000014000080140F0
:1033E000000C0140001001400014014000040140A5
:1033F0000B4BDA68BB69DB4309491340CB607B6A3E
:1034000001337B623B681A687B6A22FA03F3002B64
:103410007FF48EAE00BF00BF2C37BD4680BC704726
:103420000004014080B485B000AF78600B467B801B
:103430007B689A687B881340002B02D00123FB73C2
:1034400001E00023FB73FB7B18461437BD4680BCAC
:10345000704780B483B000AF78600B467B80134622
:103460007B707B78002B03D07A887B681A6103E03D
:103470007B881A047B681A6100BF0C37BD4680BC8C
:10348000704780B485B000AF78600B467B807B6866
:10349000DB68FB607A88FB6813401A04FB68D94339
:1034A0007B880B401A437B681A6100BF1437BD4606
:1034B00080BC704780B582B000AF0346FB80084BEC
:1034C0005A69FB881340002B06D0054AFB885361DC
:1034D000FB881846FEF78EFD00BF0837BD4680BD4D
:1034E0000004014080B586B000AF78607B68002B97
:1034F00001D1012372E27B681B6803F00103002BFA
:1035000000F08780924B5B6803F00C03042B0CD017
:103510008F4B5B6803F00C03082B12D18C4B5B685C
:1035200003F48033B3F5803F0BD1894B1B6803F460
:103530000033002B6CD07B685B68002B68D10123C3
:103540004CE27B685B68B3F5803F06D1804B1B681B
:103550007F4A43F4803313602EE07B685B68002B66
:103560000CD17B4B1B687A4A23F480331360784B71
:103570001B68774A23F4802313601DE07B685B6837
:10358000B3F5A02F0CD1724B1B68714A43F4802312
:1035900013606F4B1B686E4A43F4803313600BE07B
:1035A0006B4B1B686A4A23F480331360684B1B68BB
:1035B000674A23F4802313607B685B68002B13D079
:1035C000FFF73EF8386108E0FFF73AF802463B693A
:1035D000D31A642B01D9032300E25D4B1B6803F46B
:1035E0000033002BF0D014E0FFF72AF8386108E030
:1035F000FFF726F802463B69D31A642B01D903234F
:10360000ECE1534B1B6803F40033002BF0D100E0D6
:1036100000BF7B681B6803F00203002B63D04C4B98
:103620005B6803F00C03002B0BD0494B5B6803F085
:103630000C03082B1CD1464B5B6803F48033002B32
:1036400016D1434B1B6803F00203002B05D07B68A7
:103650001B69012B01D00123C0E13D4B1B6823F006
:10366000F8027B685B69DB00394913430B603AE081
:103670007B681B69002B20D0364B01221A60FEF7B5
:10368000DFFF386108E0FEF7DBFF02463B69D31A33
:10369000022B01D90323A1E12D4B1B6803F0020388
:1036A000002BF0D02A4B1B6823F0F8027B685B6983
:1036B000DB00274913430B6015E0264B00221A60FC
:1036C000FEF7BEFF386108E0FEF7BAFF02463B692D
:1036D000D31A022B01D9032380E11D4B1B6803F091
:1036E0000203002BF0D17B681B6803F00803002B5A
:1036F0003AD07B689B69002B19D0174B01221A60C6
:10370000FEF79EFF386108E0FEF79AFF02463B692C
:10371000D31A022B01D9032360E10D4B5B6A03F03E
:103720000203002BF0D0012000F0D8FA1CE00A4B75
:1037300000221A60FEF784FF38610FE0FEF780FF79
:1037400002463B69D31A022B08D9032346E100BF86
:10375000001002400000424280044242924B5B6AE9
:1037600003F00203002BE9D17B681B6803F004031C
:10377000002B00F0A6800023FB758B4BDB6903F068
:103780008053002B0DD1884BDB69874A43F080536F
:10379000D361854BDB6903F08053BB60BB680123B9
:1037A000FB75824B1B6803F48073002B18D17F4B91
:1037B0001B687E4A43F480731360FEF741FF386153
:1037C00008E0FEF73DFF02463B69D31A642B01D99E
:1037D000032303E1754B1B6803F48073002BF0D0C7
:1037E0007B68DB68012B06D16F4B1B6A6E4A43F086
:1037F000010313622DE07B68DB68002B0CD16A4B60
:103800001B6A694A23F001031362674B1B6A664A0D
:1038100023F0040313621CE07B68DB68052B0CD1EA
:10382000614B1B6A604A43F0040313625E4B1B6AE0
:103830005D4A43F0010313620BE05B4B1B6A5A4A7B
:1038400023F001031362584B1B6A574A23F0040309
:1038500013627B68DB68002B15D0FEF7F1FE386140
:103860000AE0FEF7EDFE02463B69D31A41F28832C8
:10387000934201D90323B1E04B4B1B6A03F00203CF
:10388000002BEED014E0FEF7DBFE38610AE0FEF715
:10389000D7FE02463B69D31A41F28832934201D9DE
:1038A00003239BE0404B1B6A03F00203002BEED185
:1038B000FB7D012B05D13C4BDB693B4A23F0805358
:1038C000D3617B68DB69002B00F08780364B5B6837
:1038D00003F00C03082B61D07B68DB69022B46D117
:1038E000334B00221A60FEF7ABFE386108E0FEF7AA
:1038F000A7FE02463B69D31A022B01D903236DE0D0
:10390000294B1B6803F00073002BF0D17B681B6A06
:10391000B3F5803F08D1244B5B6823F400327B6809
:103920009B68214913434B601F4B5B6823F474125F
:103930007B68196A7B685B6A0B431B4913434B60C6
:103940001B4B01221A60FEF77BFE386108E0FEF790
:1039500077FE02463B69D31A022B01D903233DE0CF
:10396000114B1B6803F00073002BF0D035E0104BB7
:1039700000221A60FEF764FE386108E0FEF760FE80
:1039800002463B69D31A022B01D9032326E0064BDA
:103990001B6803F00073002BF0D11EE07B68DB692D
:1039A000012B07D1012319E00010024000700040F4
:1039B000600042420B4B5B68FB60FB6803F48032A3
:1039C0007B681B6A9A4206D1FB6803F470127B681D
:1039D0005B6A9A4201D0012300E0002318461837A1
:1039E000BD4680BD0010024080B584B000AF786055
:1039F00039607B68002B01D10123D0E06A4B1B6842
:103A000003F007033A689A4210D9674B1B6823F00A
:103A1000070265493B6813430B60634B1B6803F067
:103A200007033A689A4201D00123B8E07B681B681B
:103A300003F00203002B20D07B681B6803F0040313
:103A4000002B05D0594B5B68584A43F4E063536040
:103A50007B681B6803F00803002B05D0534B5B68A1
:103A6000524A43F460535360504B5B6823F0F002BA
:103A70007B689B684D4913434B607B681B6803F070
:103A80000103002B40D07B685B68012B07D1474BBB
:103A90001B6803F40033002B15D101237FE07B6802
:103AA0005B68022B07D1414B1B6803F00073002BAE
:103AB00009D1012373E03D4B1B6803F00203002B87
:103AC00001D101236BE0394B5B6823F003027B6873
:103AD0005B68364913434B60FEF7B2FDF8600AE0BD
:103AE000FEF7AEFD0246FB68D31A41F288329342DC
:103AF00001D9032353E02D4B5B6803F00C027B6874
:103B00005B689B009A42EBD1274B1B6803F00703CD
:103B10003A689A4210D2244B1B6823F007022249CC
:103B20003B6813430B60204B1B6803F007033A68A4
:103B30009A4201D0012332E07B681B6803F0040342
:103B4000002B08D0194B5B6823F4E0627B68DB68CC
:103B5000164913434B607B681B6803F00803002B76
:103B600009D0124B5B6823F460527B681B69DB0051
:103B70000E4913434B6000F021F802460B4B5B6883
:103B80001B0903F00F030A49CB5C22FA03F3094A2D
:103B90001360094B1B681846FEF710FD00231846FA
:103BA0001037BD4680BD00BF00200240001002401B
:103BB00084800008380000203C00002090B48AB0C7
:103BC00000AF294B3C1D0FCB84E80F0040F20123CE
:103BD0003B800023FB610023BB6100237B62002349
:103BE0007B6100233B62214B5B68FB61FB6903F057
:103BF0000C03042B02D0082B03D02BE01C4B3B62A0
:103C00002BE0FB699B0C03F00F0328333B4413F8B4
:103C1000243C7B61FB6903F48033002B12D0134BEF
:103C20005B685B0C03F0010328333B4413F8283C2A
:103C3000BB617B690E4A03FB02F2BB69B2FBF3F383
:103C40007B6204E07B690B4A02FB03F37B627B6AC5
:103C50003B6202E0064B3B6200BF3B6A18462837D6
:103C6000BD4690BC704700BF648000080010024051
:103C700000127A0000093D0080B400AF024B1B68BF
:103C80001846BD4680BC70473800002080B500AFA4
:103C9000FFF7F2FF0246054B5B681B0A03F00703C0
:103CA0000349CB5C22FA03F3184680BD00100240A2
:103CB0009480000880B500AFFFF7DEFF0246054B99
:103CC0005B68DB0A03F007030349CB5C22FA03F3CA
:103CD000184680BD001002409480000880B485B072
:103CE00000AF78600A4B1B680A4AA2FB03235B0AF9
:103CF0007A6802FB03F3FB6000BFFB685A1EFA60A0
:103D0000002BF9D100BF00BF1437BD4680BC7047FF
:103D100038000020D34D621080B586B000AF7860C7
:103D200000233B610023FB607B681B6803F00103F9
:103D3000002B7DD00023FB754F4BDB6903F08053D4
:103D4000002B0DD14C4BDB694B4A43F08053D361C0
:103D5000494BDB6903F08053BB60BB680123FB75F3
:103D6000464B1B6803F48073002B18D1434B1B6830
:103D7000424A43F480731360FEF762FC386108E046
:103D8000FEF75EFC02463B69D31A642B01D903237C
:103D90006DE03A4B1B6803F48073002BF0D0364B78
:103DA0001B6A03F44073FB60FB68002B2ED07B681A
:103DB0005B6803F44073FA689A4227D02E4B1B6A63
:103DC00023F44073FB602E4B01221A602C4B00221F
:103DD0001A60294AFB681362FB6803F00103002B99
:103DE00014D0FEF72DFC38610AE0FEF729FC0246EC
:103DF0003B69D31A41F28832934201D9032336E05A
:103E00001D4B1B6A03F00203002BEED01A4B1B6AFA
:103E100023F440727B685B68174913430B62FB7D98
:103E2000012B05D1144BDB69134A23F08053D36176
:103E30007B681B6803F00203002B08D00E4B5B6805
:103E400023F440427B689B680B4913434B607B68BB
:103E50001B6803F01003002B08D0074B5B6823F4AA
:103E600080027B68DB68044913434B6000231846DB
:103E70001837BD4680BD00BF0010024000700040F2
:103E80004004424290B58DB000AF7860584B07F1C6
:103E90000C040FCB84E80F0040F201233B81002388
:103EA0007B620023FB6200233B620023FB61002353
:103EB000BB627B68102B0AD07B68102B00F28E80CF
:103EC0007B68012B49D07B68022B79D086E0494B77
:103ED0005B68FB61474B1B6803F08073002B7FD04E
:103EE000FB699B0C03F00F0330333B4413F8243C75
:103EF0003B62FB6903F48033002B17D03D4B5B68BA
:103F00005B0C03F0010330333B4413F8283C7B6225
:103F1000FB6903F48033002B0DD0374A7B6AB2FB78
:103F2000F3F23B6A02FB03F3FB6204E03B6A334AB1
:103F300002FB03F3FB622F4B5B6803F48003B3F5D2
:103F4000800F02D1FB6ABB624AE0FB6A5B002C4A2D
:103F5000A2FB03235B08BB6242E0264B1B6AFB61AA
:103F6000FB6903F44073B3F5807F08D1FB6903F06C
:103F70000203002B03D04FF40043BB621FE0FB6938
:103F800003F44073B3F5007F09D11A4B5B6A03F069
:103F90000203002B03D049F64043BB620FE0FB69EC
:103FA00003F44073B3F5407F1CD1124B1B6803F43C
:103FB0000033002B16D04FF22443BB6212E011E015
:103FC000FFF778FE02460B4B5B689B0B03F0030385
:103FD00001335B00B2FBF3F3BB6204E000BF02E01D
:103FE00000BF00E000BFBB6A18463437BD4690BD35
:103FF000748000080010024000127A0000093D00A1
:10400000ABAAAAAA80B582B000AF78607B68002B0B
:1040100001D1012341E07B6893F83D30DBB2002BF6
:1040200006D17B68002283F83C207868FEF7ECF824
:104030007B68022283F83D207B681A687B68043322
:104040001946104600F01CFC7B68012283F84620CC
:104050007B68012283F83E207B68012283F83F20A1
:104060007B68012283F840207B68012283F841208D
:104070007B68012283F842207B68012283F8432079
:104080007B68012283F844207B68012283F8452065
:104090007B68012283F83D20002318460837BD467F
:1040A00080BD000080B485B000AF78607B6893F875
:1040B0003D30DBB2012B01D0012332E07B680222CC
:1040C00083F83D207B681B68184A93420ED07B68BA
:1040D0001B68B3F1804F09D07B681B68144A934278
:1040E00004D07B681B68134A934211D17B681B681C
:1040F0009B6803F00703FB60FB68062B10D07B680E
:104100001B681A687B681B6842F001021A6007E0AE
:104110007B681B681A687B681B6842F001021A60A2
:10412000002318461437BD4680BC7047002C014060
:10413000000400400008004080B582B000AF786005
:104140007B68002B01D1012341E07B6893F83D306F
:10415000DBB2002B06D17B68002283F83C20786814
:10416000FDF7F8FF7B68022283F83D207B681A6820
:104170007B6804331946104600F082FB7B680122FD
:1041800083F846207B68012283F83E207B68012269
:1041900083F83F207B68012283F840207B6801225E
:1041A00083F841207B68012283F842207B6801224A
:1041B00083F843207B68012283F844207B68012236
:1041C00083F845207B68012283F83D2000231846B0
:1041D0000837BD4680BD000080B584B000AF786070
:1041E00039603B68002B09D17B6893F83E30DBB225
:1041F000012B14BF01230023DBB222E03B68042B18
:1042000009D17B6893F83F30DBB2012B14BF012347
:104210000023DBB215E03B68082B09D17B6893F8DB
:104220004030DBB2012B14BF01230023DBB208E0D6
:104230007B6893F84130DBB2012B14BF01230023CC
:10424000DBB2002B01D001235EE03B68002B04D1E0
:104250007B68022283F83E2013E03B68042B04D1E4
:104260007B68022283F83F200BE03B68082B04D1D7
:104270007B68022283F8402003E07B68022283F8F7
:1042800041207B681B6801223968184600F078FDE0
:104290007B681B681E4A934207D17B681B685A6C77
:1042A0007B681B6842F400425A647B681B68184AAA
:1042B00093420ED07B681B68B3F1804F09D07B68B6
:1042C0001B68144A934204D07B681B68124A9342CD
:1042D00011D17B681B689B6803F00703FB60FB68D8
:1042E000062B10D07B681B681A687B681B6842F03D
:1042F00001021A6007E07B681B681A687B681B680C
:1043000042F001021A60002318461037BD4680BDF6
:10431000002C0140000400400008004080B586B039
:1043200000AF786039607B68002B01D1012393E0F6
:104330007B6893F83D30DBB2002B06D17B6800220E
:1043400083F83C207868FDF721FF7B68022283F820
:104350003D207B681B689B687A68126823F4804361
:1043600023F0070393607B681A687B68043319465F
:10437000104600F085FA7B681B689B687B617B6850
:104380001B689B693B617B681B681B6AFB603B6821
:104390001B687A6913437B613B6923F4407323F004
:1043A00003033B613B689A683B689B691B021343AC
:1043B0003A6913433B613B6923F4406323F00C03E8
:1043C0003B613B6923F4704323F0F0033B613B689E
:1043D000DA683B68DB691B0213433A6913433B61AC
:1043E0003B681B691A013B681B6A1B0313433A694C
:1043F00013433B61FB6823F02203FB603B685A6870
:104400003B685B691B011343FA681343FB607B68DD
:104410001B687A699A607B681B683A699A617B6855
:104420001B68FA681A627B68012283F846207B6861
:10443000012283F83E207B68012283F83F207B68BD
:10444000012283F842207B68012283F843207B68A5
:10445000012283F83D20002318461837BD4680BD51
:1044600080B584B000AF786039607B6893F83E30E7
:10447000FB737B6893F83F30BB737B6893F84230E3
:104480007B737B6893F843303B733B68002B10D100
:10449000FB7B012B02D17B7B012B01D0012369E047
:1044A0007B68022283F83E207B68022283F8422048
:1044B00031E03B68042B10D1BB7B012B02D13B7B4D
:1044C000012B01D0012355E07B68022283F83F20B5
:1044D0007B68022283F843201DE0FB7B012B08D17F
:1044E000BB7B012B05D17B7B012B02D13B7B012BBD
:1044F00001D001233EE07B68022283F83E207B68E6
:10450000022283F83F207B68022283F842207B68E6
:10451000022283F843203B68002B03D03B68042B26
:1045200008D00FE07B681B6801220021184600F0CC
:1045300027FC16E07B681B6801220421184600F066
:104540001FFC0EE07B681B6801220021184600F06A
:1045500017FC7B681B6801220421184600F010FC40
:1045600000BF7B681B681A687B681B6842F0010209
:104570001A60002318461037BD4680BD80B584B050
:1045800000AFF860B9607A60FB6893F83C30012BAB
:1045900001D10223ACE0FB68012283F83C207B6858
:1045A0000C2B00F29F8001A252F823F0E145000895
:1045B000E5460008E5460008E546000821460008F3
:1045C000E5460008E5460008E546000863460008A1
:1045D000E5460008E5460008E5460008A346000851
:1045E000FB681B68B968184600F0ACF9FB681B68EB
:1045F0009A69FB681B6842F008029A61FB681B68B5
:104600009A69FB681B6822F004029A61FB681B68C8
:104610009969BB681A69FB681B680A439A6162E082
:10462000FB681B68B968184600F0F2F9FB681B6864
:104630009A69FB681B6842F400629A61FB681B6818
:104640009A69FB681B6822F480629A61FB681B68A8
:104650009969BB681B691A02FB681B680A439A6167
:1046600041E0FB681B68B968184600F03BFAFB683C
:104670001B68DA69FB681B6842F00802DA61FB68B4
:104680001B68DA69FB681B6822F00402DA61FB68C8
:104690001B68D969BB681A69FB681B680A43DA6141
:1046A00021E0FB681B68B968184600F085FAFB68D2
:1046B0001B68DA69FB681B6842F40062DA61FB6818
:1046C0001B68DA69FB681B6822F48062DA61FB68A8
:1046D0001B68D969BB681B691A02FB681B680A431F
:1046E000DA6100E000BFFB68002283F83C20002371
:1046F00018461037BD4680BD80B584B000AF7860E5
:1047000039607B6893F83C30012B01D10223B3E080
:104710007B68012283F83C207B68022283F83D20DD
:104720007B681B689B68FB60FB6823F07703FB607A
:10473000FB6823F47F43FB607B681B68FA689A6020
:104740003B681B68B3F5005F3ED0B3F5005F00F235
:104750008780B3F5805F00F08580B3F5805F7FD8F8
:10476000702B1AD0702B7BD8602B50D0602B77D851
:10477000502B3CD0502B73D8402B58D0402B6FD8A7
:10478000302B64D0302B6BD8202B60D0202B67D8F7
:10479000002B5CD0102B5AD062E07B6818683B6815
:1047A00099683B685A683B68DB6800F0CAFA7B6826
:1047B0001B689B68FB60FB6843F07703FB607B68CA
:1047C0001B68FA689A604EE07B6818683B689968D5
:1047D0003B685A683B68DB6800F0B3FA7B681B688B
:1047E0009A687B681B6842F480429A603BE07B6871
:1047F00018683B6859683B68DB681A4600F02AFA7B
:104800007B681B685021184600F081FA2BE07B681A
:1048100018683B6859683B68DB681A4600F048FA3C
:104820007B681B686021184600F071FA1BE07B680A
:1048300018683B6859683B68DB681A4600F00AFA5A
:104840007B681B684021184600F061FA0BE07B682A
:104850001A683B681B681946104600F058FA02E0D7
:1048600000BF00E000BF7B68012283F83D207B6829
:10487000002283F83C20002318461037BD4680BD37
:1048800080B485B000AF786039607B681B68FB60DE
:104890007B68294A93420BD07B68B3F1804F07D0E5
:1048A0007B68264A934203D07B68254A934208D10D
:1048B000FB6823F07003FB603B685B68FA68134396
:1048C000FB607B681C4A93420BD07B68B3F1804F3E
:1048D00007D07B68194A934203D07B68184A9342F9
:1048E00008D1FB6823F44073FB603B68DB68FA681F
:1048F0001343FB60FB6823F080023B685B69134352
:10490000FB607B68FA681A603B689A687B68DA62C9
:104910003B681A687B689A627B68074A934203D1B6
:104920003B681A697B681A637B6801225A6100BF81
:104930001437BD4680BC7047002C01400004004085
:104940000008004080B487B000AF786039607B68B1
:104950001B6A23F001027B681A627B681B6A7B6119
:104960007B685B683B617B689B69FB60FB6823F04D
:104970007003FB60FB6823F00303FB603B681B686C
:10498000FA681343FB607B6923F002037B613B6899
:104990009B687A6913437B617B681C4A93420CD104
:1049A0007B6923F008037B613B68DB687A6913430A
:1049B0007B617B6923F004037B617B68134A93422C
:1049C00011D13B6923F480733B613B6923F400738D
:1049D0003B613B685B693A6913433B613B689B6998
:1049E0003A6913433B617B683A695A607B68FA68AD
:1049F0009A613B685A687B685A637B687A691A6275
:104A000000BF1C37BD4680BC704700BF002C014072
:104A100080B487B000AF786039607B681B6A23F090
:104A200010027B681A627B681B6A7B617B685B682B
:104A30003B617B689B69FB60FB6823F4E043FB60A0
:104A4000FB6823F44073FB603B681B681B02FA6839
:104A50001343FB607B6923F020037B613B689B6809
:104A60001B017A6913437B617B681D4A93420DD118
:104A70007B6923F080037B613B68DB681B017A69FB
:104A800013437B617B6923F040037B617B68144A9D
:104A9000934213D13B6923F480633B613B6923F468
:104AA00000633B613B685B699B003A6913433B6170
:104AB0003B689B699B003A6913433B617B683A6999
:104AC0005A607B68FA689A613B685A687B689A63A7
:104AD0007B687A691A6200BF1C37BD4680BC70478C
:104AE000002C014080B487B000AF786039607B68EB
:104AF0001B6A23F480727B681A627B681B6A7B6185
:104B00007B685B683B617B68DB69FB60FB6823F06B
:104B10007003FB60FB6823F00303FB603B681B68CA
:104B2000FA681343FB607B6923F400737B613B6885
:104B30009B681B027A6913437B617B681D4A934221
:104B40000DD17B6923F400637B613B68DB681B024A
:104B50007A6913437B617B6923F480637B617B68A3
:104B6000144A934213D13B6923F480533B613B6960
:104B700023F400533B613B685B691B013A691343B3
:104B80003B613B689B691B013A6913433B617B684E
:104B90003A695A607B68FA68DA613B685A687B68F0
:104BA000DA637B687A691A6200BF1C37BD4680BC35
:104BB000704700BF002C014080B487B000AF786020
:104BC00039607B681B6A23F480527B681A627B68B9
:104BD0001B6A3B617B685B687B617B68DB69FB60B0
:104BE000FB6823F4E043FB60FB6823F44073FB6045
:104BF0003B681B681B02FA681343FB603B6923F4A4
:104C000000533B613B689B681B033A6913433B615C
:104C10007B680F4A934209D17B6923F480437B610F
:104C20003B685B699B017A6913437B617B687A69A6
:104C30005A607B68FA68DA613B685A687B681A6474
:104C40007B683A691A6200BF1C37BD4680BC70475A
:104C5000002C014080B487B000AFF860B9607A6082
:104C6000FB681B6A7B61FB681B6A23F00102FB681F
:104C70001A62FB689B693B613B6923F0F0033B616F
:104C80007B681B013A6913433B617B6923F00A038C
:104C90007B617A69BB6813437B61FB683A699A61FF
:104CA000FB687A691A6200BF1C37BD4680BC70473A
:104CB00080B487B000AFF860B9607A60FB681B6AA7
:104CC00023F01002FB681A62FB689B697B61FB683A
:104CD0001B6A3B617B6923F470437B617B681B0328
:104CE0007A6913437B613B6923F0A0033B61BB6896
:104CF0001B013A6913433B61FB687A699A61FB685F
:104D00003A691A6200BF1C37BD4680BC704780B448
:104D100085B000AF786039607B689B68FB60FB689A
:104D200023F07003FB603A68FB68134343F007030A
:104D3000FB607B68FA689A6000BF1437BD4680BC90
:104D4000704780B487B000AFF860B9607A603B60AC
:104D5000FB689B687B617B6923F47F437B613B68D5
:104D60001A027B681A43BB6813437A6913437B6159
:104D7000FB687A699A6000BF1C37BD4680BC7047EB
:104D800080B487B000AFF860B9607A60BB6803F0A8
:104D90001F03012202FA03F37B61FB681A6A7B6935
:104DA000DB431A40FB681A62FB681A6ABB6803F0AF
:104DB0001F03796801FA03F31A43FB681A6200BF04
:104DC0001C37BD4680BC704780B485B000AF7860AA
:104DD00039607B6893F83C30012B01D1022346E017
:104DE0007B68012283F83C207B68022283F83D2007
:104DF0007B681B685B68FB607B681B689B68BB60AB
:104E0000FB6823F07003FB603B681B68FA68134380
:104E1000FB607B681B68FA685A607B681B68164AEF
:104E200093420ED07B681B68B3F1804F09D07B683A
:104E30001B68124A934204D07B681B68104A934255
:104E40000CD1BB6823F08003BB603B685B68BA6829
:104E50001343BB607B681B68BA689A607B68012259
:104E600083F83D207B68002283F83C20002318460D
:104E70001437BD4680BC7047002C01400004004040
:104E80000008004080B582B000AF78607B68002BDE
:104E900001D101233FE07B6893F83D30DBB2002B6A
:104EA00006D17B68002283F83C207868FDF7FAF988
:104EB0007B68242283F83D207B681B68DA687B6866
:104EC0001B6822F40052DA60786800F005F97B680C
:104ED0001B681A697B681B6822F490421A617B6820
:104EE0001B685A697B681B6822F02A025A617B683A
:104EF0001B68DA687B681B6842F40052DA607B68E2
:104F000000221A647B68202283F83D207B682022DF
:104F100083F83E20002318460837BD4680BD80B583
:104F20008AB002AFF860B9603B601346FB80002393
:104F30007B61FB6893F83D30DBB2202B7CD1BB68F2
:104F4000002B02D0FB88002B01D1012375E0FB6808
:104F500093F83C30012B01D102236EE0FB68012263
:104F600083F83C20FB6800221A64FB68212283F846
:104F70003D20FDF765FB7861FB68FA889A84FB6841
:104F8000FA88DA84FB689B68B3F5805F08D1FB6818
:104F90001B69002B04D10023FB61BB68BB6103E0EC
:104FA000BB68FB610023BB61FB68002283F83C20E7
:104FB0002AE03B6800937B6900228021F86800F0BA
:104FC00040F80346002B01D0032336E0FB69002B99
:104FD0000BD1BB691B881A46FB681B68C2F3080229
:104FE0005A60BB690233BB6107E0FB691A78FB6852
:104FF0001B685A60FB690133FB61FB68DB8C9BB269
:10500000013B9AB2FB68DA84FB68DB8C9BB2002B15
:10501000CFD13B6800937B6900224021F86800F003
:1050200010F80346002B01D0032306E0FB68202282
:1050300083F83D20002300E0022318462037BD46B8
:1050400080BD80B584B000AFF860B9603B601346A6
:10505000FB712CE0BB69B3F1FF3F28D0BB69002B8B
:1050600007D0FDF7EDFA02463B68D31ABA699A42B7
:105070001DD2FB681B68DA68FB681B6822F4D072DB
:10508000DA60FB681B685A69FB681B6822F0010242
:105090005A61FB68202283F83D20FB68202283F8B8
:1050A0003E20FB68002283F83C2003230FE0FB68CE
:1050B0001B681A68BB681340BA689A420CBF012388
:1050C0000023DBB21A46FB799A42C3D0002318466C
:1050D0001037BD4680BD000080B584B000AF786059
:1050E0007B681B681B6923F440517B68DA687B6826
:1050F0001B680A431A617B689A687B681B691A43BC
:105100007B685B691343BB607B681B68DB6823F4C7
:10511000B05323F00C037A681268B9680B43D3606C
:105120007B681B685B6923F440717B689A697B68C4
:105130001B680A435A617B681B682C4A934203D15F
:10514000FEF7B8FDF86002E0FEF7A0FDF860FA682F
:1051500013469B0013449A001A447B685B689B00CB
:10516000B2FBF3F3224AA2FB03235B091901FA689D
:1051700013469B0013449A001A447B685B689B00AB
:10518000B2FBF3F21A4BA3FB02035B09642000FBA2
:1051900003F3D31A1B013233154AA2FB03235B0925
:1051A00003F0F0031944FA6813469B0013449A0075
:1051B0001A447B685B689B00B2FBF3F20C4BA3FBC9
:1051C00002035B09642000FB03F3D31A1B01323393
:1051D000074AA2FB03235B0903F00F027B681B68ED
:1051E0000A449A6000BF1037BD4680BD00380140B8
:1051F0001F85EB51014B1868704700BF4400002029
:1052000070B500260C4D0D4C641BA410A64209D1AC
:1052100002F0FAFE00260A4D0A4C641BA410A642B6
:1052200005D170BD55F8043B98470136EEE755F8B7
:10523000043B98470136F2E7748400087484000840
:10524000748400087884000803460244934200D125
:10525000704703F8011BF9E7002B2DE9F0471F46C3
:10526000BBBF03F100431F4600232D2388B0144623
:10527000129A109D1370149BDDF84CA023F02008A7
:10528000B8F1460F05D0B8F1450F00D10135022322
:1052900000E0032307AA049206AACDE902A2CDE901
:1052A000003522463B4600F0E3FCB8F1470F0646C6
:1052B00002D1119BDB0722D5B8F1460F06EB050999
:1052C00010D13378302B0AD10022002320463946F2
:1052D000FBF76AFB18B9C5F10105CAF80050DAF806
:1052E000003099440022002320463946FBF75CFB3E
:1052F00008B1CDF81C903022079B4B4507D33046B0
:10530000079B159A9B1B136008B0BDE8F087591CDA
:1053100007911A70F0E70346F7B5002903F8022B4E
:10532000B6BF2D222B224942092942702BDD0DF1F7
:105330000704A4460A2791FBF7F60A46A64607FB90
:105340001615632A05F13005314604F1FF340EF8D5
:10535000015CF0DC3031AEF1020504F8011C294695
:10536000441C61450AD30DF10902A2EB0E0265450A
:1053700088BF00221344181A03B0F0BD11F8012BA6
:1053800004F8012FEDE7302330318370C170031D25
:10539000F1E700002DE9F04F91B00C46DDF8688090
:1053A00016461F46054601F051FA03681846099350
:1053B000FAF7CEFE00230E93D8F800300A90073398
:1053C00023F0070303F1080294F81890D4F800B012
:1053D000C8F80020D3E90023C4E91223D4E9128AD3
:1053E0002AF000430B934FF0FF3240469C4B0B9941
:1053F000FBF70CFB70BB4FF0FF324046984B0B990C
:10540000FBF7E6FA30BB0022002340465146FBF78B
:10541000D5FA10B12D2384F84330924B9248B9F15C
:10542000470F94BF9846804603234FF0000A23613C
:105430002BF00403236033462146284600970FAA29
:1054400000F0D4F9013040F090804FF0FF3011B0FF
:10545000BDE8F08F4246534640465146FBF7D6FA28
:1054600048B1BAF1000FB8BF2D238048B8BF84F807
:1054700043307F4BD3E7636809F0DF015A1C42D108
:1054800006236360002206920EAACDE904920DAABB
:105490004BF4806303920DF13302CDE901322360B6
:1054A000636842460093284653460B91FFF7D4FEAB
:1054B0000B99804647290D9908D1C81C02DB636807
:1054C000994240DDA9F102095FFA89F9B9F1650F46
:1054D0001FD84A46013904F150000D91FFF71BFF18
:1054E0000E9A82461318012A236102DC2268D20731
:1054F00001D5013323619DF83330002B9BD02D2340
:1055000084F8433097E74729BCD1002BBAD1012357
:10551000B7E7B9F1660F18D1002963680BDD216187
:1055200013B92268D00702D501330B4423614FF031
:10553000000AA165DFE713B92268D20701D502335B
:10554000F4E70123F2E74FF067090E9B994205DB70
:1055500023682161D807EAD54B1CE7E70029CCBFB7
:105560000122C1F102021344E0E723685A0507D47F
:105570002369424631462846B84701302BD164E7BB
:10558000B9F1650F40F2DD80D4E912010022002359
:10559000FBF70AFA002833D0012331462846354A62
:1055A000B84701303FF451AFDDE90D239A4202DBE9
:1055B0002368D8070FD5DDE9092331462846B847C7
:1055C00001303FF442AF4FF0000804F11A090E9B7E
:1055D000013B434509DC23689B0700F10281E06839
:1055E0000F9B9842B8BF184631E701234A4631461F
:1055F0002846B84701303FF428AF08F10108E6E734
:105600000D9B002B38DC012331462846194AB84748
:1056100001303FF41AAFDDE90D23134302D12368B3
:10562000D907D8D5DDE9092331462846B8470130E6
:105630003FF40BAF4FF0000904F11A0A0D9B5B42D7
:105640004B4501DC0E9B94E7012352463146284628
:10565000B84701303FF4F9AE09F10109EEE700BFA8
:10566000FFFFEF7FA0800008A4800008AC80000846
:10567000A8800008B08000080E9AA36D9A42A8BFC7
:105680001A46002A914637DC4FF0000B29EAE979E7
:1056900004F11A02D4F858A0AAEB09035B4533DCE5
:1056A000DDE90D239A423BDB2368DA0738D40E9BF1
:1056B0000D99A3EB0A02A3EB01099145A8BF9146FE
:1056C000B9F1000F34DC4FF0000829EAE97904F160
:1056D0001A0ADDE90D239B1AA3EB090343457FF763
:1056E0007AAF0123524631462846B84701303FF48D
:1056F000ACAE08F10108ECE71346314642462846B5
:10570000B8470130C0D1A0E60123314628460B92AC
:10571000B84701303FF499AE0B9A0BF1010BB9E792
:105720003146DDE909232846B8470130BFD18CE670
:105730004B463146284608EB0A02B8470130C2D131
:1057400083E60E9A012A01DCDB0737D501234246A6
:1057500031462846B84701303FF477AEDDE90923EA
:1057600031462846B84701303FF46FAED4E9120104
:1057700000220023FBF718F9D8B90E9B08F10102AB
:10578000013B31462846B84701300ED15DE6012382
:105790004A4631462846B84701303FF456AE08F134
:1057A00001080E9B013B4345F1DC534604F15002D6
:1057B000E0E64FF0000804F11A09F2E7012342463F
:1057C000DFE701234A4631462846B84701303FF417
:1057D0003CAE08F10108E3680F995B1A4345F0DC21
:1057E000FDE64FF0000804F11909F4E72DE9F04750
:1057F000164699468A680B6907469342B8BF134616
:10580000336091F843200C46DDF820800AB1013363
:1058100033602368990642BF3368023333602568DA
:1058200015F0060506D104F1190AE36832689B1ADF
:10583000AB4228DC94F84320131E226818BF0123D2
:1058400092062DD44946384604F14302C047013040
:1058500020D02368E56803F00603042B18BF002559
:1058600032684FF00006A36808BFAD1A226908BF6E
:1058700025EAE5759342C4BF9B1AED181A34B54268
:105880001AD1002008E00123524649463846C04755
:10589000013003D14FF0FF30BDE8F0870135C4E798
:1058A0003020E11881F843005A1C94F84510224436
:1058B000023382F84310C5E70123224649463846A1
:1058C000C0470130E6D00136D9E700002DE9FF4797
:1058D0000F7E9146782F80460C469A460C9D01F12A
:1058E000430207D8622F0AD8002F00F0D980582F22
:1058F00000F0A48004F1420584F842703AE0A7F178
:105900006303152BF6D801A151F823F0655900085F
:1059100079590008F5580008F5580008F5580008AE
:10592000F558000879590008F5580008F55800089E
:10593000F5580008F5580008875A0008A9590008CA
:10594000695A0008F5580008F5580008A95A0008D7
:10595000F5580008A9590008F5580008F55800083E
:10596000715A00082B681A1D1B682A6004F1420551
:1059700084F842300123A4E020682968060601F17A
:1059800004030AD50E682B60002E03DA2D2376421D
:1059900084F843300A235E4819E00E6810F0400F87
:1059A0002B6018BF36B2EFE72B682068191D2960FD
:1059B000010601D51E6802E04606FBD51E886F2F42
:1059C0000CBF08230A235248002184F8431065685D
:1059D000002DA8BF2168A560A4BF21F004012160AB
:1059E0000EB9002D4DD01546B6FBF3F103FB116740
:1059F000C75D05F8017D3746BB420E46F4D9082B3A
:105A00000BD12368DE0708D5236961689942DEBFA0
:105A1000302305F8013C05F1FF35521B22614B464E
:105A200021464046CDF800A003AAFFF7DFFE013073
:105A30004CD14FF0FF3004B0BDE8F087344881F816
:105A400045702968236851F8046B29601D0614D538
:105A5000DF0744BF43F0200323601EB9236823F00F
:105A6000200323601023AFE7236843F02003236063
:105A70007823284884F84530E3E7590648BFB6B292
:105A8000E6E71546BBE72B682668181D61692860A4
:105A900035061B6801D5196002E07006FBD5198038
:105AA000002315462361BAE72B6800211A1D2A60DE
:105AB0001D686268284600F0D5FE08B1401B606092
:105AC00063682361002384F84330A8E72A464946E7
:105AD00040462369D0470130ABD023689B0713D4DD
